{
  "contractName": "Dice",
  "abi": [
    {
      "inputs": [],
      "name": "manager",
      "outputs": [
        {
          "internalType": "address",
          "name": "",
          "type": "address"
        }
      ],
      "stateMutability": "view",
      "type": "function",
      "constant": true
    },
    {
      "inputs": [
        {
          "internalType": "uint256",
          "name": "",
          "type": "uint256"
        }
      ],
      "name": "players",
      "outputs": [
        {
          "internalType": "address payable",
          "name": "",
          "type": "address"
        }
      ],
      "stateMutability": "view",
      "type": "function",
      "constant": true
    },
    {
      "inputs": [],
      "name": "CEO",
      "outputs": [],
      "stateMutability": "nonpayable",
      "type": "function"
    },
    {
      "inputs": [],
      "name": "Enter",
      "outputs": [
        {
          "internalType": "uint256",
          "name": "",
          "type": "uint256"
        }
      ],
      "stateMutability": "payable",
      "type": "function",
      "payable": true
    },
    {
      "inputs": [
        {
          "internalType": "uint256",
          "name": "number",
          "type": "uint256"
        }
      ],
      "name": "getRandomNumber",
      "outputs": [
        {
          "internalType": "uint256",
          "name": "",
          "type": "uint256"
        }
      ],
      "stateMutability": "view",
      "type": "function",
      "constant": true
    },
    {
      "inputs": [],
      "name": "Winner",
      "outputs": [
        {
          "internalType": "string",
          "name": "",
          "type": "string"
        },
        {
          "internalType": "uint256",
          "name": "",
          "type": "uint256"
        },
        {
          "internalType": "uint256",
          "name": "",
          "type": "uint256"
        }
      ],
      "stateMutability": "payable",
      "type": "function",
      "payable": true
    }
  ],
  "bytecode": "0x608060405234801561001057600080fd5b50610a6a806100206000396000f3fe6080604052600436106100555760003560e01c80631097e5791461005a578063481c6a7514610078578063a1088571146100a3578063b2b98ed2146100ba578063b37217a4146100da578063f71d96cb14610117575b600080fd5b610062610154565b60405161006f91906105ba565b60405180910390f35b34801561008457600080fd5b5061008d610205565b60405161009a9190610616565b60405180910390f35b3480156100af57600080fd5b506100b8610229565b005b6100c261026b565b6040516100d1939291906106ca565b60405180910390f35b3480156100e657600080fd5b5061010160048036038101906100fc9190610739565b61050b565b60405161010e91906105ba565b60405180910390f35b34801561012357600080fd5b5061013e60048036038101906101399190610739565b610562565b60405161014b9190610787565b60405180910390f35b600066038d7ea4c68000341161019f576040517f08c379a0000000000000000000000000000000000000000000000000000000008152600401610196906107ee565b60405180910390fd5b6001339080600181540180825580915050600190039060005260206000200160009091909190916101000a81548173ffffffffffffffffffffffffffffffffffffffff021916908373ffffffffffffffffffffffffffffffffffffffff16021790555090565b60008054906101000a900473ffffffffffffffffffffffffffffffffffffffff1681565b336000806101000a81548173ffffffffffffffffffffffffffffffffffffffff021916908373ffffffffffffffffffffffffffffffffffffffff160217905550565b606060008060008054906101000a900473ffffffffffffffffffffffffffffffffffffffff1673ffffffffffffffffffffffffffffffffffffffff163373ffffffffffffffffffffffffffffffffffffffff16146102fe576040517f08c379a00000000000000000000000000000000000000000000000000000000081526004016102f59061085a565b60405180910390fd5b600061030a600061050b565b90506000610318600161050b565b9050808211156103ef5760016000815481106103375761033661087a565b5b9060005260206000200160009054906101000a900473ffffffffffffffffffffffffffffffffffffffff1673ffffffffffffffffffffffffffffffffffffffff166108fc479081150290604051600060405180830381858888f193505050501580156103a7573d6000803e3d6000fd5b5081816040518060400160405280600b81526020017f77696e20312067616d657200000000000000000000000000000000000000000081525091909450945094505050610506565b808210156104c3576001808154811061040b5761040a61087a565b5b9060005260206000200160009054906101000a900473ffffffffffffffffffffffffffffffffffffffff1673ffffffffffffffffffffffffffffffffffffffff166108fc479081150290604051600060405180830381858888f1935050505015801561047b573d6000803e3d6000fd5b5081816040518060400160405280600b81526020017f77696e20322067616d657200000000000000000000000000000000000000000081525091909450945094505050610506565b81816040518060400160405280600681526020017f6e6f626f64790000000000000000000000000000000000000000000000000000815250919094509450945050505b909192565b600080600a42338560405160200161052593929190610912565b6040516020818303038152906040528051906020012060001c610548919061097e565b905060028161055791906109de565b905080915050919050565b6001818154811061057257600080fd5b906000526020600020016000915054906101000a900473ffffffffffffffffffffffffffffffffffffffff1681565b6000819050919050565b6105b4816105a1565b82525050565b60006020820190506105cf60008301846105ab565b92915050565b600073ffffffffffffffffffffffffffffffffffffffff82169050919050565b6000610600826105d5565b9050919050565b610610816105f5565b82525050565b600060208201905061062b6000830184610607565b92915050565b600081519050919050565b600082825260208201905092915050565b60005b8381101561066b578082015181840152602081019050610650565b8381111561067a576000848401525b50505050565b6000601f19601f8301169050919050565b600061069c82610631565b6106a6818561063c565b93506106b681856020860161064d565b6106bf81610680565b840191505092915050565b600060608201905081810360008301526106e48186610691565b90506106f360208301856105ab565b61070060408301846105ab565b949350505050565b600080fd5b610716816105a1565b811461072157600080fd5b50565b6000813590506107338161070d565b92915050565b60006020828403121561074f5761074e610708565b5b600061075d84828501610724565b91505092915050565b6000610771826105d5565b9050919050565b61078181610766565b82525050565b600060208201905061079c6000830184610778565b92915050565b7f7468652062696420697320746f6f20736d616c6c000000000000000000000000600082015250565b60006107d860148361063c565b91506107e3826107a2565b602082019050919050565b60006020820190508181036000830152610807816107cb565b9050919050565b7f4e6f206163636573732000000000000000000000000000000000000000000000600082015250565b6000610844600a8361063c565b915061084f8261080e565b602082019050919050565b6000602082019050818103600083015261087381610837565b9050919050565b7f4e487b7100000000000000000000000000000000000000000000000000000000600052603260045260246000fd5b6000819050919050565b6108c46108bf826105a1565b6108a9565b82525050565b60008160601b9050919050565b60006108e2826108ca565b9050919050565b60006108f4826108d7565b9050919050565b61090c610907826105f5565b6108e9565b82525050565b600061091e82866108b3565b60208201915061092e82856108fb565b60148201915061093e82846108b3565b602082019150819050949350505050565b7f4e487b7100000000000000000000000000000000000000000000000000000000600052601260045260246000fd5b6000610989826105a1565b9150610994836105a1565b9250826109a4576109a361094f565b5b828206905092915050565b7f4e487b7100000000000000000000000000000000000000000000000000000000600052601160045260246000fd5b60006109e9826105a1565b91506109f4836105a1565b9250827fffffffffffffffffffffffffffffffffffffffffffffffffffffffffffffffff03821115610a2957610a286109af565b5b82820190509291505056fea2646970667358221220e482b042d835fcc14bfee31eb88b55c0b3892c6fd9993c3769cf6190f66dc2ca64736f6c634300080b0033",
  "immutableReferences": {},
  "source": "// SPDX-License-Identifier: MIT\npragma solidity >=0.4.22 <0.9.0;\n\ncontract Dice {\n  address public manager;\n  address payable[] public players;\n\n  function CEO() public{\n    manager = msg.sender;\n  }\n\n  function Enter() public payable returns(uint) {\n    require(msg.value > .001 ether, \"the bid is too small\");\n    players.push(payable(msg.sender));\n  }\n\n  function getRandomNumber(uint number) public view returns(uint) {\n    uint brosok = uint(keccak256(abi.encodePacked(block.timestamp, msg.sender, number))) % 10;\n    brosok = brosok + 2;\n    return(brosok);\n  }\n\n  function Winner() public payable restricted returns(string memory, uint, uint){\n    uint player1 = getRandomNumber(0);\n    uint player2 = getRandomNumber(1);\n    if(player1 > player2){\n        players[0].transfer(address(this).balance);\n        return(\"win 1 gamer\",player1, player2);\n      }\n      else if(player1 < player2){\n        players[1].transfer(address(this).balance);\n        return(\"win 2 gamer\",player1, player2);\n    }\n    else return(\"nobody\", player1, player2);\n  }\n  modifier restricted() {\n    require(msg.sender == manager, \"No access \");\n    _;\n  }\n}\n",
  "sourcePath": "C:\\Users\\inin_\\Documents\\VS Code\\SIMPLEGAMES\\contracts\\Dice.sol",
  "compiler": {
    "name": "solc",
    "version": "0.8.11+commit.d7f03943.Emscripten.clang"
  },
  "schemaVersion": "3.4.4",
  "updatedAt": "2022-02-23T08:46:31.466Z",
  "networkType": "ethereum",
  "devdoc": {
    "kind": "dev",
    "methods": {},
    "version": 1
  },
  "userdoc": {
    "kind": "user",
    "methods": {},
    "version": 1
  }
}