{
  "contractName": "DragonForge",
  "abi": [
    {
      "anonymous": false,
      "inputs": [
        {
          "indexed": false,
          "internalType": "uint256",
          "name": "id",
          "type": "uint256"
        },
        {
          "indexed": false,
          "internalType": "string",
          "name": "name",
          "type": "string"
        },
        {
          "indexed": false,
          "internalType": "uint256",
          "name": "dna",
          "type": "uint256"
        }
      ],
      "name": "NewDragon",
      "type": "event"
    },
    {
      "inputs": [
        {
          "internalType": "string",
          "name": "name",
          "type": "string"
        }
      ],
      "name": "CreateDragon",
      "outputs": [],
      "stateMutability": "nonpayable",
      "type": "function"
    },
    {
      "inputs": [
        {
          "internalType": "uint256",
          "name": "",
          "type": "uint256"
        }
      ],
      "name": "DragonOwner",
      "outputs": [
        {
          "internalType": "address",
          "name": "",
          "type": "address"
        }
      ],
      "stateMutability": "view",
      "type": "function",
      "constant": true
    },
    {
      "inputs": [
        {
          "internalType": "uint256",
          "name": "",
          "type": "uint256"
        }
      ],
      "name": "dragons",
      "outputs": [
        {
          "internalType": "uint256",
          "name": "id",
          "type": "uint256"
        },
        {
          "internalType": "string",
          "name": "name",
          "type": "string"
        },
        {
          "internalType": "uint256",
          "name": "dna",
          "type": "uint256"
        }
      ],
      "stateMutability": "view",
      "type": "function",
      "constant": true
    },
    {
      "inputs": [
        {
          "internalType": "string",
          "name": "name",
          "type": "string"
        },
        {
          "internalType": "uint256",
          "name": "id",
          "type": "uint256"
        },
        {
          "internalType": "uint256",
          "name": "food",
          "type": "uint256"
        }
      ],
      "name": "Reforge",
      "outputs": [],
      "stateMutability": "payable",
      "type": "function",
      "payable": true
    }
  ],
  "bytecode": "0x608060405234801561001057600080fd5b50610bff806100206000396000f3fe60806040526004361061003f5760003560e01c80630c50c644146100445780630fab557b146100815780639222073a146100aa578063d2a59d69146100c6575b600080fd5b34801561005057600080fd5b5061006b60048036038101906100669190610604565b610105565b6040516100789190610672565b60405180910390f35b34801561008d57600080fd5b506100a860048036038101906100a391906107d3565b610138565b005b6100c460048036038101906100bf919061081c565b6102e9565b005b3480156100d257600080fd5b506100ed60048036038101906100e89190610604565b61040b565b6040516100fc93929190610922565b60405180910390f35b60016020528060005260406000206000915054906101000a900473ffffffffffffffffffffffffffffffffffffffff1681565b6000610143826104cd565b90506000600260003373ffffffffffffffffffffffffffffffffffffffff1673ffffffffffffffffffffffffffffffffffffffff168152602001908152602001600020549050600060405180606001604052808381526020018581526020018481525090806001815401808255809150506001900390600052602060002090600302016000909190919091506000820151816000015560208201518160010190805190602001906101f5929190610517565b50604082015181600201555050336001600083815260200190815260200160002060006101000a81548173ffffffffffffffffffffffffffffffffffffffff021916908373ffffffffffffffffffffffffffffffffffffffff1602179055507f094a968afe62c9f0ce8d6395ff90deb5cbe7809a9ea66019ef5c61335ab3f11781848460405161028793929190610922565b60405180910390a1600260003373ffffffffffffffffffffffffffffffffffffffff1673ffffffffffffffffffffffffffffffffffffffff16815260200190815260200160002060008154809291906102df9061098f565b9190505550505050565b6000341161032c576040517f08c379a000000000000000000000000000000000000000000000000000000000815260040161032390610a24565b60405180910390fd5b60008160405160200161033f9190610a44565b6040516020818303038152906040528051906020012060001c9050662386f26fc100008161036d9190610a8e565b905060006002828561037f9190610abf565b6103899190610b15565b9050600060405180606001604052808681526020018781526020018381525090806001815401808255809150506001900390600052602060002090600302016000909190919091506000820151816000015560208201518160010190805190602001906103f7929190610517565b506040820151816002015550505050505050565b6000818154811061041b57600080fd5b906000526020600020906003020160009150905080600001549080600101805461044490610b75565b80601f016020809104026020016040519081016040528092919081815260200182805461047090610b75565b80156104bd5780601f10610492576101008083540402835291602001916104bd565b820191906000526020600020905b8154815290600101906020018083116104a057829003601f168201915b5050505050908060020154905083565b600080826040516020016104e19190610ba7565b6040516020818303038152906040528051906020012060001c9050662386f26fc100008161050f9190610a8e565b915050919050565b82805461052390610b75565b90600052602060002090601f016020900481019282610545576000855561058c565b82601f1061055e57805160ff191683800117855561058c565b8280016001018555821561058c579182015b8281111561058b578251825591602001919060010190610570565b5b509050610599919061059d565b5090565b5b808211156105b657600081600090555060010161059e565b5090565b6000604051905090565b600080fd5b600080fd5b6000819050919050565b6105e1816105ce565b81146105ec57600080fd5b50565b6000813590506105fe816105d8565b92915050565b60006020828403121561061a576106196105c4565b5b6000610628848285016105ef565b91505092915050565b600073ffffffffffffffffffffffffffffffffffffffff82169050919050565b600061065c82610631565b9050919050565b61066c81610651565b82525050565b60006020820190506106876000830184610663565b92915050565b600080fd5b600080fd5b6000601f19601f8301169050919050565b7f4e487b7100000000000000000000000000000000000000000000000000000000600052604160045260246000fd5b6106e082610697565b810181811067ffffffffffffffff821117156106ff576106fe6106a8565b5b80604052505050565b60006107126105ba565b905061071e82826106d7565b919050565b600067ffffffffffffffff82111561073e5761073d6106a8565b5b61074782610697565b9050602081019050919050565b82818337600083830152505050565b600061077661077184610723565b610708565b90508281526020810184848401111561079257610791610692565b5b61079d848285610754565b509392505050565b600082601f8301126107ba576107b961068d565b5b81356107ca848260208601610763565b91505092915050565b6000602082840312156107e9576107e86105c4565b5b600082013567ffffffffffffffff811115610807576108066105c9565b5b610813848285016107a5565b91505092915050565b600080600060608486031215610835576108346105c4565b5b600084013567ffffffffffffffff811115610853576108526105c9565b5b61085f868287016107a5565b9350506020610870868287016105ef565b9250506040610881868287016105ef565b9150509250925092565b610894816105ce565b82525050565b600081519050919050565b600082825260208201905092915050565b60005b838110156108d45780820151818401526020810190506108b9565b838111156108e3576000848401525b50505050565b60006108f48261089a565b6108fe81856108a5565b935061090e8185602086016108b6565b61091781610697565b840191505092915050565b6000606082019050610937600083018661088b565b818103602083015261094981856108e9565b9050610958604083018461088b565b949350505050565b7f4e487b7100000000000000000000000000000000000000000000000000000000600052601160045260246000fd5b600061099a826105ce565b91507fffffffffffffffffffffffffffffffffffffffffffffffffffffffffffffffff8214156109cd576109cc610960565b5b600182019050919050565b7f70617920666f722074686520666f6f6400000000000000000000000000000000600082015250565b6000610a0e6010836108a5565b9150610a19826109d8565b602082019050919050565b60006020820190508181036000830152610a3d81610a01565b9050919050565b6000602082019050610a59600083018461088b565b92915050565b7f4e487b7100000000000000000000000000000000000000000000000000000000600052601260045260246000fd5b6000610a99826105ce565b9150610aa4836105ce565b925082610ab457610ab3610a5f565b5b828206905092915050565b6000610aca826105ce565b9150610ad5836105ce565b9250827fffffffffffffffffffffffffffffffffffffffffffffffffffffffffffffffff03821115610b0a57610b09610960565b5b828201905092915050565b6000610b20826105ce565b9150610b2b836105ce565b925082610b3b57610b3a610a5f565b5b828204905092915050565b7f4e487b7100000000000000000000000000000000000000000000000000000000600052602260045260246000fd5b60006002820490506001821680610b8d57607f821691505b60208210811415610ba157610ba0610b46565b5b50919050565b60006020820190508181036000830152610bc181846108e9565b90509291505056fea264697066735822122080c2468aa68ceffccac9af2f93e61c6cac8b926c6719bbd230f40db59247ae3e64736f6c634300080b0033",
  "immutableReferences": {},
  "source": "// SPDX-License-Identifier: MIT\npragma solidity >=0.4.22 <0.9.0;\n\nimport \"./DragonFarm.sol\";\ncontract DragonForge is DragonFarm {\n  function Reforge (string memory name, uint id, uint food) public payable{\n    require(msg.value > 0, \"pay for the food\");\n    uint brains = uint (keccak256((abi.encode(food))));\n    brains = brains % (10**16);\n    uint newDna = (id + brains) /2;\n    dragons.push(Dragon(id,name,newDna));\n  }\n  \n}\n",
  "sourcePath": "C:\\Users\\inin_\\Documents\\VS Code\\SIMPLEGAMES\\contracts\\DragonForge.sol",
  "compiler": {
    "name": "solc",
    "version": "0.8.11+commit.d7f03943.Emscripten.clang"
  },
  "schemaVersion": "3.4.4",
  "updatedAt": "2022-02-23T08:46:33.819Z",
  "networkType": "ethereum",
  "devdoc": {
    "kind": "dev",
    "methods": {},
    "version": 1
  },
  "userdoc": {
    "kind": "user",
    "methods": {},
    "version": 1
  }
}