{
  "contractName": "RandomSeven",
  "abi": [
    {
      "inputs": [
        {
          "internalType": "uint256",
          "name": "x",
          "type": "uint256"
        }
      ],
      "name": "Random",
      "outputs": [
        {
          "internalType": "string",
          "name": "",
          "type": "string"
        }
      ],
      "stateMutability": "pure",
      "type": "function",
      "constant": true
    }
  ],
  "bytecode": "0x608060405234801561001057600080fd5b50610650806100206000396000f3fe608060405234801561001057600080fd5b506004361061002b5760003560e01c8063bcf69e7214610030575b600080fd5b61004a600480360381019061004591906101c7565b610060565b604051610057919061028d565b60405180910390f35b60606000806130396341c64e6d8561007891906102de565b6100829190610338565b9350618000620100008561009691906103bd565b6100a091906103ee565b91506000600190505b600581101561014b576001816100bf919061041f565b600a6100cb9190610586565b81600a6100d89190610586565b846100e391906103ee565b6100ed91906103bd565b91506007821415610138576040518060400160405280600681526020017f57696e6e657200000000000000000000000000000000000000000000000000008152509350505050610187565b8080610143906105d1565b9150506100a9565b506040518060400160405280600681526020017f4c6f6f7365720000000000000000000000000000000000000000000000000000815250925050505b919050565b600080fd5b6000819050919050565b6101a481610191565b81146101af57600080fd5b50565b6000813590506101c18161019b565b92915050565b6000602082840312156101dd576101dc61018c565b5b60006101eb848285016101b2565b91505092915050565b600081519050919050565b600082825260208201905092915050565b60005b8381101561022e578082015181840152602081019050610213565b8381111561023d576000848401525b50505050565b6000601f19601f8301169050919050565b600061025f826101f4565b61026981856101ff565b9350610279818560208601610210565b61028281610243565b840191505092915050565b600060208201905081810360008301526102a78184610254565b905092915050565b7f4e487b7100000000000000000000000000000000000000000000000000000000600052601160045260246000fd5b60006102e982610191565b91506102f483610191565b9250817fffffffffffffffffffffffffffffffffffffffffffffffffffffffffffffffff048311821515161561032d5761032c6102af565b5b828202905092915050565b600061034382610191565b915061034e83610191565b9250827fffffffffffffffffffffffffffffffffffffffffffffffffffffffffffffffff03821115610383576103826102af565b5b828201905092915050565b7f4e487b7100000000000000000000000000000000000000000000000000000000600052601260045260246000fd5b60006103c882610191565b91506103d383610191565b9250826103e3576103e261038e565b5b828204905092915050565b60006103f982610191565b915061040483610191565b9250826104145761041361038e565b5b828206905092915050565b600061042a82610191565b915061043583610191565b925082821015610448576104476102af565b5b828203905092915050565b60008160011c9050919050565b6000808291508390505b60018511156104aa57808604811115610486576104856102af565b5b60018516156104955780820291505b80810290506104a385610453565b945061046a565b94509492505050565b6000826104c3576001905061057f565b816104d1576000905061057f565b81600181146104e757600281146104f157610520565b600191505061057f565b60ff841115610503576105026102af565b5b8360020a91508482111561051a576105196102af565b5b5061057f565b5060208310610133831016604e8410600b84101617156105555782820a9050838111156105505761054f6102af565b5b61057f565b6105628484846001610460565b92509050818404811115610579576105786102af565b5b81810290505b9392505050565b600061059182610191565b915061059c83610191565b92506105c97fffffffffffffffffffffffffffffffffffffffffffffffffffffffffffffffff84846104b3565b905092915050565b60006105dc82610191565b91507fffffffffffffffffffffffffffffffffffffffffffffffffffffffffffffffff82141561060f5761060e6102af565b5b60018201905091905056fea26469706673582212202860667d86855401040554bbab91ce87deb7146c1d560a7260f325f7af4de8b964736f6c634300080b0033",
  "immutableReferences": {},
  "source": "// SPDX-License-Identifier: MIT\npragma solidity >=0.4.22 <0.9.0;\n\ncontract RandomSeven {\n  function Random(uint x) public pure returns(string memory) {\n    uint N;\n    uint MasRand;\n    x = x * 1103515245 + 12345;\n    N = (x/65536)%32768;\n    for (uint i = 1; i < 5; i++) {\n      MasRand = (N % (10**i)) / (10**(i-1));\n      if (MasRand==7) return (\"Winner\");\n    }\n    return (\"Looser\");\n  }\n}\n",
  "sourcePath": "C:\\Users\\inin_\\Documents\\VS Code\\SIMPLEGAMES\\contracts\\RandomSeven.sol",
  "compiler": {
    "name": "solc",
    "version": "0.8.11+commit.d7f03943.Emscripten.clang"
  },
  "schemaVersion": "3.4.4",
  "updatedAt": "2022-02-23T08:46:29.143Z",
  "networkType": "ethereum",
  "devdoc": {
    "kind": "dev",
    "methods": {},
    "version": 1
  },
  "userdoc": {
    "kind": "user",
    "methods": {},
    "version": 1
  }
}