{
  "contractName": "RLottery",
  "abi": [
    {
      "inputs": [
        {
          "internalType": "uint256",
          "name": "",
          "type": "uint256"
        }
      ],
      "name": "players",
      "outputs": [
        {
          "internalType": "uint256",
          "name": "Num",
          "type": "uint256"
        }
      ],
      "stateMutability": "view",
      "type": "function",
      "constant": true
    },
    {
      "inputs": [
        {
          "internalType": "uint256",
          "name": "Num",
          "type": "uint256"
        }
      ],
      "name": "getTickets",
      "outputs": [],
      "stateMutability": "payable",
      "type": "function",
      "payable": true
    },
    {
      "inputs": [],
      "name": "Winner",
      "outputs": [
        {
          "internalType": "string",
          "name": "",
          "type": "string"
        },
        {
          "internalType": "uint256",
          "name": "",
          "type": "uint256"
        }
      ],
      "stateMutability": "view",
      "type": "function",
      "constant": true
    }
  ],
  "bytecode": "0x608060405234801561001057600080fd5b506105cc806100206000396000f3fe6080604052600436106100345760003560e01c806314f2979f14610039578063b2b98ed214610055578063f71d96cb14610081575b600080fd5b610053600480360381019061004e9190610234565b6100be565b005b34801561006157600080fd5b5061006a610133565b604051610078929190610309565b60405180910390f35b34801561008d57600080fd5b506100a860048036038101906100a39190610234565b6101db565b6040516100b59190610339565b60405180910390f35b600a811115610102576040517f08c379a00000000000000000000000000000000000000000000000000000000081526004016100f9906103c6565b60405180910390fd5b6040518060200160405280828152506000808381526020019081526020016000206000820151816000015590505050565b6060600080600a9050600080600942338560405160200161015693929190610481565b6040516020818303038152906040528051906020012060001c61017991906104ed565b905080806101869061054d565b915050600a8161019691906104ed565b9150816040518060400160405280600f81526020017f77696e6e65722773206e756d626572000000000000000000000000000000000081525090945094505050509091565b60006020528060005260406000206000915090508060000154905081565b600080fd5b6000819050919050565b610211816101fe565b811461021c57600080fd5b50565b60008135905061022e81610208565b92915050565b60006020828403121561024a576102496101f9565b5b60006102588482850161021f565b91505092915050565b600081519050919050565b600082825260208201905092915050565b60005b8381101561029b578082015181840152602081019050610280565b838111156102aa576000848401525b50505050565b6000601f19601f8301169050919050565b60006102cc82610261565b6102d6818561026c565b93506102e681856020860161027d565b6102ef816102b0565b840191505092915050565b610303816101fe565b82525050565b6000604082019050818103600083015261032381856102c1565b905061033260208301846102fa565b9392505050565b600060208201905061034e60008301846102fa565b92915050565b7f313020706c6179657273206861766520616c7265616479206265656e2072656760008201527f6973746572656400000000000000000000000000000000000000000000000000602082015250565b60006103b060278361026c565b91506103bb82610354565b604082019050919050565b600060208201905081810360008301526103df816103a3565b9050919050565b6000819050919050565b6104016103fc826101fe565b6103e6565b82525050565b600073ffffffffffffffffffffffffffffffffffffffff82169050919050565b600061043282610407565b9050919050565b60008160601b9050919050565b600061045182610439565b9050919050565b600061046382610446565b9050919050565b61047b61047682610427565b610458565b82525050565b600061048d82866103f0565b60208201915061049d828561046a565b6014820191506104ad82846103f0565b602082019150819050949350505050565b7f4e487b7100000000000000000000000000000000000000000000000000000000600052601260045260246000fd5b60006104f8826101fe565b9150610503836101fe565b925082610513576105126104be565b5b828206905092915050565b7f4e487b7100000000000000000000000000000000000000000000000000000000600052601160045260246000fd5b6000610558826101fe565b91507fffffffffffffffffffffffffffffffffffffffffffffffffffffffffffffffff82141561058b5761058a61051e565b5b60018201905091905056fea2646970667358221220b6b5b64bb616569a1953984e700393fb92e478b5eec17298eb0f794336e8f88f64736f6c634300080b0033",
  "immutableReferences": {},
  "source": "// SPDX-License-Identifier: MIT\npragma solidity >=0.4.22 <0.9.0;\n\ncontract RLottery {\n  struct player{\n    uint Num;\n  }\n  mapping(uint => player) public players;\n\n  function getTickets (uint Num) public payable{\n    require(Num <= 10,\"10 players have already been registered\");\n    players[Num] = player(Num);\n  }\n\n  function Winner() public view returns(string memory, uint){\n    uint lenght = 10;\n    uint index;\n    uint randomnumber = uint(keccak256(abi.encodePacked(block.timestamp,msg.sender, lenght)))%9;\n    randomnumber++;\n    index = randomnumber %10;\n    return (\"winner's number\", index);\n  }\n}\n",
  "sourcePath": "C:\\Users\\inin_\\Documents\\VS Code\\SIMPLEGAMES\\contracts\\RLottery.sol",
  "compiler": {
    "name": "solc",
    "version": "0.8.11+commit.d7f03943.Emscripten.clang"
  },
  "schemaVersion": "3.4.4",
  "updatedAt": "2022-02-23T08:46:30.313Z",
  "networkType": "ethereum",
  "devdoc": {
    "kind": "dev",
    "methods": {},
    "version": 1
  },
  "userdoc": {
    "kind": "user",
    "methods": {},
    "version": 1
  }
}